{
  "contractName": "Voting",
  "abi": [
    {
      "inputs": [
        {
          "internalType": "string[]",
          "name": "_candidateNames",
          "type": "string[]"
        }
      ],
      "stateMutability": "nonpayable",
      "type": "constructor"
    },
    {
      "inputs": [],
      "name": "admin",
      "outputs": [
        {
          "internalType": "address",
          "name": "",
          "type": "address"
        }
      ],
      "stateMutability": "view",
      "type": "function",
      "constant": true
    },
    {
      "inputs": [
        {
          "internalType": "uint256",
          "name": "",
          "type": "uint256"
        }
      ],
      "name": "candidates",
      "outputs": [
        {
          "internalType": "string",
          "name": "name",
          "type": "string"
        },
        {
          "internalType": "uint256",
          "name": "voteCount",
          "type": "uint256"
        }
      ],
      "stateMutability": "view",
      "type": "function",
      "constant": true
    },
    {
      "inputs": [
        {
          "internalType": "address",
          "name": "",
          "type": "address"
        }
      ],
      "name": "hasVotedByAddress",
      "outputs": [
        {
          "internalType": "bool",
          "name": "",
          "type": "bool"
        }
      ],
      "stateMutability": "view",
      "type": "function",
      "constant": true
    },
    {
      "inputs": [],
      "name": "getCandidates",
      "outputs": [
        {
          "components": [
            {
              "internalType": "string",
              "name": "name",
              "type": "string"
            },
            {
              "internalType": "uint256",
              "name": "voteCount",
              "type": "uint256"
            }
          ],
          "internalType": "struct Voting.Candidate[]",
          "name": "",
          "type": "tuple[]"
        }
      ],
      "stateMutability": "view",
      "type": "function",
      "constant": true
    },
    {
      "inputs": [
        {
          "internalType": "uint256",
          "name": "candidateIndex",
          "type": "uint256"
        }
      ],
      "name": "vote",
      "outputs": [],
      "stateMutability": "nonpayable",
      "type": "function"
    },
    {
      "inputs": [],
      "name": "getWinner",
      "outputs": [
        {
          "internalType": "uint256",
          "name": "",
          "type": "uint256"
        }
      ],
      "stateMutability": "view",
      "type": "function",
      "constant": true
    },
    {
      "inputs": [
        {
          "internalType": "address",
          "name": "voter",
          "type": "address"
        }
      ],
      "name": "hasVoted",
      "outputs": [
        {
          "internalType": "bool",
          "name": "",
          "type": "bool"
        }
      ],
      "stateMutability": "view",
      "type": "function",
      "constant": true
    },
    {
      "inputs": [],
      "name": "getAdmin",
      "outputs": [
        {
          "internalType": "address",
          "name": "",
          "type": "address"
        }
      ],
      "stateMutability": "view",
      "type": "function",
      "constant": true
    }
  ],
  "bytecode": "0x60806040523480156200001157600080fd5b50604051620011ad380380620011ad833981810160405281019062000037919062000303565b336000806101000a81548173ffffffffffffffffffffffffffffffffffffffff021916908373ffffffffffffffffffffffffffffffffffffffff16021790555060005b8151811015620001475760026040518060400160405280848481518110620000cb577f4e487b7100000000000000000000000000000000000000000000000000000000600052603260045260246000fd5b60200260200101518152602001600081525090806001815401808255809150506001900390600052602060002090600202016000909190919091506000820151816000019080519060200190620001249291906200014f565b5060208201518160010155505080806200013e9062000454565b9150506200007a565b50506200052f565b8280546200015d906200041e565b90600052602060002090601f016020900481019282620001815760008555620001cd565b82601f106200019c57805160ff1916838001178555620001cd565b82800160010185558215620001cd579182015b82811115620001cc578251825591602001919060010190620001af565b5b509050620001dc9190620001e0565b5090565b5b80821115620001fb576000816000905550600101620001e1565b5090565b60006200021662000210846200037c565b62000348565b9050808382526020820190508260005b858110156200025a57815185016200023f8882620002d6565b84526020840193506020830192505060018101905062000226565b5050509392505050565b60006200027b6200027584620003ab565b62000348565b9050828152602081018484840111156200029457600080fd5b620002a1848285620003e8565b509392505050565b600082601f830112620002bb57600080fd5b8151620002cd848260208601620001ff565b91505092915050565b600082601f830112620002e857600080fd5b8151620002fa84826020860162000264565b91505092915050565b6000602082840312156200031657600080fd5b600082015167ffffffffffffffff8111156200033157600080fd5b6200033f84828501620002a9565b91505092915050565b6000604051905081810181811067ffffffffffffffff8211171562000372576200037162000500565b5b8060405250919050565b600067ffffffffffffffff8211156200039a576200039962000500565b5b602082029050602081019050919050565b600067ffffffffffffffff821115620003c957620003c862000500565b5b601f19601f8301169050602081019050919050565b6000819050919050565b60005b8381101562000408578082015181840152602081019050620003eb565b8381111562000418576000848401525b50505050565b600060028204905060018216806200043757607f821691505b602082108114156200044e576200044d620004d1565b5b50919050565b60006200046182620003de565b91507fffffffffffffffffffffffffffffffffffffffffffffffffffffffffffffffff821415620004975762000496620004a2565b5b600182019050919050565b7f4e487b7100000000000000000000000000000000000000000000000000000000600052601160045260246000fd5b7f4e487b7100000000000000000000000000000000000000000000000000000000600052602260045260246000fd5b7f4e487b7100000000000000000000000000000000000000000000000000000000600052604160045260246000fd5b610c6e806200053f6000396000f3fe608060405234801561001057600080fd5b50600436106100885760003560e01c80636e9960c31161005b5780636e9960c3146101285780638e7ea5b214610146578063d9e289d214610164578063f851a4401461019457610088565b80630121b93f1461008d57806306a49fce146100a957806309eef43e146100c75780633477ee2e146100f7575b600080fd5b6100a760048036038101906100a291906106e9565b6101b2565b005b6100b1610343565b6040516100be9190610921565b60405180910390f35b6100e160048036038101906100dc91906106c0565b61043e565b6040516100ee9190610943565b60405180910390f35b610111600480360381019061010c91906106e9565b610494565b60405161011f92919061095e565b60405180910390f35b610130610550565b60405161013d9190610906565b60405180910390f35b61014e610579565b60405161015b91906109ce565b60405180910390f35b61017e600480360381019061017991906106c0565b610652565b60405161018b9190610943565b60405180910390f35b61019c610672565b6040516101a99190610906565b60405180910390f35b600160003373ffffffffffffffffffffffffffffffffffffffff1673ffffffffffffffffffffffffffffffffffffffff16815260200190815260200160002060009054906101000a900460ff161561023f576040517f08c379a0000000000000000000000000000000000000000000000000000000008152600401610236906109ae565b60405180910390fd5b6002805490508110610286576040517f08c379a000000000000000000000000000000000000000000000000000000000815260040161027d9061098e565b60405180910390fd5b60018060003373ffffffffffffffffffffffffffffffffffffffff1673ffffffffffffffffffffffffffffffffffffffff16815260200190815260200160002060006101000a81548160ff021916908315150217905550600160028281548110610319577f4e487b7100000000000000000000000000000000000000000000000000000000600052603260045260246000fd5b906000526020600020906002020160010160008282546103399190610a4f565b9250508190555050565b60606002805480602002602001604051908101604052809291908181526020016000905b82821015610435578382906000526020600020906002020160405180604001604052908160008201805461039a90610b20565b80601f01602080910402602001604051908101604052809291908181526020018280546103c690610b20565b80156104135780601f106103e857610100808354040283529160200191610413565b820191906000526020600020905b8154815290600101906020018083116103f657829003601f168201915b5050505050815260200160018201548152505081526020019060010190610367565b50505050905090565b6000600160008373ffffffffffffffffffffffffffffffffffffffff1673ffffffffffffffffffffffffffffffffffffffff16815260200190815260200160002060009054906101000a900460ff169050919050565b600281815481106104a457600080fd5b90600052602060002090600202016000915090508060000180546104c790610b20565b80601f01602080910402602001604051908101604052809291908181526020018280546104f390610b20565b80156105405780601f1061051557610100808354040283529160200191610540565b820191906000526020600020905b81548152906001019060200180831161052357829003601f168201915b5050505050908060010154905082565b60008060009054906101000a900473ffffffffffffffffffffffffffffffffffffffff16905090565b600080600090506000805b6002805490508110156106495781600282815481106105cc577f4e487b7100000000000000000000000000000000000000000000000000000000600052603260045260246000fd5b9060005260206000209060020201600101541115610636576002818154811061061e577f4e487b7100000000000000000000000000000000000000000000000000000000600052603260045260246000fd5b90600052602060002090600202016001015491508092505b808061064190610b52565b915050610584565b50819250505090565b60016020528060005260406000206000915054906101000a900460ff1681565b60008054906101000a900473ffffffffffffffffffffffffffffffffffffffff1681565b6000813590506106a581610c0a565b92915050565b6000813590506106ba81610c21565b92915050565b6000602082840312156106d257600080fd5b60006106e084828501610696565b91505092915050565b6000602082840312156106fb57600080fd5b6000610709848285016106ab565b91505092915050565b600061071e83836108ab565b905092915050565b61072f81610aa5565b82525050565b6000610740826109f9565b61074a8185610a1c565b93508360208202850161075c856109e9565b8060005b8581101561079857848403895281516107798582610712565b945061078483610a0f565b925060208a01995050600181019050610760565b50829750879550505050505092915050565b6107b381610ab7565b82525050565b60006107c482610a04565b6107ce8185610a2d565b93506107de818560208601610aed565b6107e781610bf9565b840191505092915050565b60006107fd82610a04565b6108078185610a3e565b9350610817818560208601610aed565b61082081610bf9565b840191505092915050565b6000610838601483610a3e565b91507f43616e646964617420696e6578697374616e742e0000000000000000000000006000830152602082019050919050565b6000610878601483610a3e565b91507f566f7573206176657a2064656a6120766f74652e0000000000000000000000006000830152602082019050919050565b600060408301600083015184820360008601526108c882826107b9565b91505060208301516108dd60208601826108e8565b508091505092915050565b6108f181610ae3565b82525050565b61090081610ae3565b82525050565b600060208201905061091b6000830184610726565b92915050565b6000602082019050818103600083015261093b8184610735565b905092915050565b600060208201905061095860008301846107aa565b92915050565b6000604082019050818103600083015261097881856107f2565b905061098760208301846108f7565b9392505050565b600060208201905081810360008301526109a78161082b565b9050919050565b600060208201905081810360008301526109c78161086b565b9050919050565b60006020820190506109e360008301846108f7565b92915050565b6000819050602082019050919050565b600081519050919050565b600081519050919050565b6000602082019050919050565b600082825260208201905092915050565b600082825260208201905092915050565b600082825260208201905092915050565b6000610a5a82610ae3565b9150610a6583610ae3565b9250827fffffffffffffffffffffffffffffffffffffffffffffffffffffffffffffffff03821115610a9a57610a99610b9b565b5b828201905092915050565b6000610ab082610ac3565b9050919050565b60008115159050919050565b600073ffffffffffffffffffffffffffffffffffffffff82169050919050565b6000819050919050565b60005b83811015610b0b578082015181840152602081019050610af0565b83811115610b1a576000848401525b50505050565b60006002820490506001821680610b3857607f821691505b60208210811415610b4c57610b4b610bca565b5b50919050565b6000610b5d82610ae3565b91507fffffffffffffffffffffffffffffffffffffffffffffffffffffffffffffffff821415610b9057610b8f610b9b565b5b600182019050919050565b7f4e487b7100000000000000000000000000000000000000000000000000000000600052601160045260246000fd5b7f4e487b7100000000000000000000000000000000000000000000000000000000600052602260045260246000fd5b6000601f19601f8301169050919050565b610c1381610aa5565b8114610c1e57600080fd5b50565b610c2a81610ae3565b8114610c3557600080fd5b5056fea2646970667358221220dd7e2d84e02a13466457966bda0d6d2dc77f2dfa1b92671b2d758b16c822e7c764736f6c63430008000033",
  "immutableReferences": {},
  "source": "// SPDX-License-Identifier: MIT\r\npragma solidity ^0.8.0;\r\n\r\ncontract Voting {\r\n    // Dfinition de la structure pour un candidat\r\n    struct Candidate {\r\n        string name;\r\n        uint256 voteCount;\r\n    }\r\n\r\n    address public admin;\r\n    mapping(address => bool) public hasVotedByAddress;  // Renomm pour viter la collision de nom\r\n    Candidate[] public candidates;\r\n\r\n    // Modificateur pour restreindre l'accs uniquement  l'admin\r\n    modifier onlyAdmin() {\r\n        require(msg.sender == admin, \"Seul l'administrateur peut effectuer cette action.\");\r\n        _;\r\n    }\r\n\r\n    // Constructeur du contrat, prend un tableau de noms de candidats\r\n    constructor(string[] memory _candidateNames) {\r\n        admin = msg.sender; // L'administrateur est celui qui dploie le contrat\r\n        for (uint256 i = 0; i < _candidateNames.length; i++) {\r\n            candidates.push(Candidate({\r\n                name: _candidateNames[i],\r\n                voteCount: 0\r\n            }));\r\n        }\r\n    }\r\n\r\n    // Fonction pour obtenir le nombre de candidats\r\n    function getCandidates() public view returns (Candidate[] memory) {\r\n        return candidates;\r\n    }\r\n\r\n    // Fonction permettant  un utilisateur de voter\r\n    function vote(uint256 candidateIndex) public {\r\n        require(!hasVotedByAddress[msg.sender], \"Vous avez deja vote.\"); // Vrifie si l'utilisateur a dj vot\r\n        require(candidateIndex < candidates.length, \"Candidat inexistant.\");\r\n\r\n        hasVotedByAddress[msg.sender] = true;\r\n        candidates[candidateIndex].voteCount += 1;\r\n    }\r\n\r\n    // Fonction pour obtenir le gagnant (le candidat avec le plus de votes)\r\n    function getWinner() public view returns (uint256) {\r\n        uint256 winnerIndex = 0;\r\n        uint256 maxVotes = 0;\r\n\r\n        for (uint256 i = 0; i < candidates.length; i++) {\r\n            if (candidates[i].voteCount > maxVotes) {\r\n                maxVotes = candidates[i].voteCount;\r\n                winnerIndex = i;\r\n            }\r\n        }\r\n\r\n        return winnerIndex;\r\n    }\r\n\r\n    // Fonction pour vrifier si un utilisateur a dj vot\r\n    function hasVoted(address voter) public view returns (bool) {\r\n        return hasVotedByAddress[voter];\r\n    }\r\n\r\n    // Fonction pour obtenir l'adresse de l'administrateur\r\n    function getAdmin() public view returns (address) {\r\n        return admin;\r\n    }\r\n}",
  "sourcePath": "C:\\Users\\TechnoMax\\Desktop\\test-VotingProject-\\contracts\\Voting.sol",
  "compiler": {
    "name": "solc",
    "version": "0.8.0+commit.c7dfd78e.Emscripten.clang"
  },
  "schemaVersion": "3.4.16",
  "updatedAt": "2025-04-29T12:02:10.560Z",
  "networkType": "ethereum",
  "devdoc": {
    "kind": "dev",
    "methods": {},
    "version": 1
  },
  "userdoc": {
    "kind": "user",
    "methods": {},
    "version": 1
  }
}